:1000000000000320D1010000B92500007D2500007B
:100010007D2500007D2500007D2500007D25000058
:100020007D2500007D2500007D250000B92500000C
:10003000B92500007D250000B92500006D250000D0
:10004000B9250000B9250000B9250000B925000038
:10005000B9250000B9250000B9250000B925000028
:10006000B9250000B9250000B9250000B925000018
:10007000B9250000B9250000B9250000B925000008
:10008000B9250000B9250000B9250000B9250000F8
:10009000B9250000B9250000B9250000B9250000E8
:1000A000191C0000291C0000B9250000B92500001A
:1000B000B9250000B9250000B9250000194200004B
:1000C000B92500009D490000B9250000254F00001A
:1000D000B925000051550000B9250000B9250000E0
:1000E000B9250000B9250000B9250000B925000098
:1000F000B9250000B9250000B9250000B925000088
:10010000B9250000B9250000B9250000B925000077
:10011000B9250000052B0000B9250000B925000015
:10012000B9250000B9250000B9250000B925000057
:10013000B9250000B9250000B9250000B925000047
:10014000B9250000B9250000A15A0000B92500001A
:10015000B9250000B9250000B9250000B925000027
:10016000B9250000B9250000391C0000B9250000A0
:10017000B9250000B9250000B9250000B925000007
:10018000B9250000B9250000B9250000B9250000F7
:10019000B9250000B925000001610000B925000063
:1001A000B9250000B9250000B9250000491C000050
:1001B000B9250000B9250000B9250000B9250000C7
:1001C000B9250000B9250000B9250000B9250000B7
:1001D0005C4B4CF2205210B51A804DF628121A8052
:1001E00000BF00BF02F0ECF9574B4FF030621A60CD
:1001F000564A9A60564ADA60564B4FF470021A60BB
:10020000554B564A1A60564B1A6812F4807204D144
:1002100054490A604FF4A8521A60534B1A781107D8
:1002200003D51A7842F008021A70504B504C5148CE
:10023000AA221A70504A00239918A14203D21958D1
:1002400099500433F8E74D4B4D4900228B4202D2BE
:1002500043F8042BFAE74B484B4900235A581A50ED
:100260000433B3F5E87FF9D1484B494A802103F8BC
:10027000011B9342FBD1474B424A1A60464B8A22EC
:100280001A70A3F5805324225A70A0221A709A790A
:100290009207FCD59A79D406FCD4404B9A7902F0A7
:1002A0000C02082AFAD13E4B60221A7002331A78E7
:1002B000802AFCD1394B01221A715D225A719A7938
:1002C0009006FCD59979354A4906FBD5354B364918
:1002D00019600021596020231370937903F00C03F7
:1002E0000C2BFAD1314B324A1A60324B324A1A6027
:1002F00000225A60072243F8042C304AC3F80C2D20
:1003000062B602F085FA174B1B68DA0705D52C4850
:1003100002F0C2F92B4B2C4A1A602C4B1B785B065F
:1003200009D5284C284A2368934204D1244802F076
:10033000B3F90023236008F095F902F047F903F0C0
:10034000CFF9FEE70E20054030800440823F0400D4
:100350000100002B88ED00E0002008E0030000858C
:1003600010D0034014D0034002D0074000E0074003
:10037000141AFF1F1C9800006007FF1F141AFF1FAC
:100380004C1FFF1F0002FF1F0000000000E400E000
:1003900064E400E008ED00E0005006400040064044
:1003A00001E007404480044000000602048004404D
:1003B000C010070014E000E01FBF02000000202072
:1003C0005E442F011CE00340A5C3945A00F007408F
:1003D000FFFFFFFFFFFFFFFFFFFFFFFFFFFFFFFF2D
:1003E000FFFFFFFFFFFFFFFFFFFFFFFFFFFFFFFF1D
:1003F000FFFFFFFFFFFFFFFFFFFFFFFFFFFFFFFF0D
:10040000FFFFFFFFFFFFFFFFFFFFFFFFDEF9FFFF23
:1004100010B5054C237833B9044B13B10448AFF33E
:1004200000800123237010BD141AFF1F000000007C
:100430001C98000008B5064B1BB106480649AFF3EF
:1004400000800648036813B1054B03B1984708BD07
:10045000000000001C980000181AFF1F141AFF1F4C
:100460000000000030B58DB0714B1869597B002336
:1004700000930322019202936E4A03920122049296
:100480001A4600F02BFC4FF47A7002F0ABF96A4C7C
:1004900023685B68204669491B229847204603F081
:1004A0002FF9674D284602F033F823685B68204631
:1004B00064491D229847204603F022F9284602F09D
:1004C0004DF8614B614A00280CBF15461D46284671
:1004D00008F0B2FB024623685B682046294698472D
:1004E000204603F00DF9564806A901F001FE2368E5
:1004F0005B682046564912229847204603F000F9CF
:1005000023685B68204653492D229847069807F0D8
:1005100035FD41EC100B2046012103F03DF9236825
:100520004D4D5B682046294612229847204603F02D
:10053000E7F823685B68204648492D2298470798CA
:1005400007F01CFD41EC100B2046012103F024F9BB
:1005500023685B682046294612229847204603F00C
:10056000CFF823685B6820463D492D2298470898BC
:1005700007F004FD41EC100B2046012103F00CF9BB
:1005800023685B682046294612229847204603F0DC
:10059000B7F823685B6820463249292298470998B2
:1005A00007F0ECFC41EC100B2046012103F0F4F8BD
:1005B00023685B682046294612229847204603F0AC
:1005C0009FF823685B6820462749292298470A98A4
:1005D00007F0D4FC41EC100B2046012103F0DCF8BD
:1005E00023685B682046294612229847204603F07C
:1005F00087F823685B6820461C49292298470B9896
:1006000007F0BCFC41EC100B2046012103F0C4F8BC
:1006100023685B682046294612229847204603F04B
:100620006FF84FF47A7002F0DDF80DB030BD00BF06
:10063000681AFF1F801A0600881BFF1F0490000025
:10064000301AFF1F20900000C88F0000E88F0000C4
:1006500040900000549000008490000098900000AA
:10066000C8900000F8900000249100005091000014
:10067000704700BF08B5024801F040FC08BD00BF4C
:10068000301AFF1F0369D3F83801D3F83431C01A88
:10069000704700BF704700BF0369D3F84422B2F52A
:1006A000817F09D8D3F84422501CC3F84402134474
:1006B00083F83C110120704701230371002070472B
:1006C00030B40369D3F84442B4F5817F1ED8D3F81F
:1006D0004442C4F581740134D3F844522B4403F5E9
:1006E0009E73944202D201220271224632B18D18C9
:1006F00011F8014B03F8014BA942F9D10369D3F872
:1007000044121144C3F84412104602E0012303715D
:10071000002030BC704700BF38B50446084B03606A
:10072000036993F84822022A08D1D3F864522DB104
:10073000284602F0BBFF284602F0DEFF204638BD07
:100740008891000010B4002202714FF47A74846022
:100750000273064A026041734FF41B74044A04FB9F
:10076000012101615DF8044B704700BF88910000D2
:100770006407FF1F70B504460D46C3681B7813F06D
:10078000200F40F02E81836880211970C3681221E8
:10079000197090F84932012B0BD022B9002380F850
:1007A0004832012070BD531EDBB2012B00F21B81C9
:1007B00000E0012225B94FF080718C4B19600DE0EB
:1007C000012D04D14FF00071884B19600CE0022D0F
:1007D00004D14FF48061864B196005E0032D03D1ED
:1007E0004FF00061824B1960022A40F0F680D4F885
:1007F00064624EB9082002F07BFF0646002102F039
:10080000F5FEC4F864627EB13379202B0CD13046FA
:1008100002F04CFF304602F06FFF0023C4F8643250
:10082000012084F8480270BD002D30D133689A8BC6
:1008300092B2998B42F008029A83D4F86432197903
:1008400010316C486C4A42F821001A7953119B0010
:1008500003F1604303F5614302F01F02012101FA35
:1008600002F21A60D4F864321B689A8B92B2998BA8
:1008700042F002029A83D4F864321B7903F1804378
:1008800003F5043300221A7092221A7069E0012DD8
:1008900032D1D4F864321B689A8B92B2998B42F0B1
:1008A00008029A83D4F86432197910315348524AB5
:1008B00042F821001A7953119B0003F1604303F5BC
:1008C000614302F01F02012101FA02F21A60D4F81A
:1008D00064321B689A8B92B2998B42F002029A831F
:1008E000D4F864321B7903F1804303F5043300220A
:1008F0001A7093221A7068E0022D32D1D4F8643253
:100900001B689A8B92B2998B42F008029A83D4F8B2
:100910006432197910313A48374A42F821001A797D
:1009200053119B0003F1604303F5614302F01F0282
:10093000012101FA02F21A60D4F864321B689A8B22
:1009400092B2998B42F002029A83D4F864321B79F6
:1009500003F1804303F5043300221A7093221A70C6
:1009600033E0032D31D1D4F864321B689A8B92B2F4
:10097000998B42F008029A83D4F8643219791031C5
:1009800020481D4A42F821001A7953119B0003F1B7
:10099000604303F5614302F01F02012101FA02F2F4
:1009A0001A60D4F864321B689A8B92B2998B42F029
:1009B00002029A83D4F864321B7903F1804303F571
:1009C000043300221A7092221A70002384F85A32DB
:1009D000022384F84832012070BD012084F84802C7
:1009E00070BD002070BD012070BD00BF00E100E0BF
:1009F00008E100E0191C00000002FF1F291C000094
:100A0000391C0000491C000070B4254BA3FB0145B4
:100A1000AD092D02A3FB02439B09B5FBF3F5B5F528
:100A2000A05F38DB1F4A012302E00133382B05D0D9
:100A300052F8044FB5EB042FF7DA93B15A1E194C54
:100A400054F82260A5EB0626002EB8BF764254F873
:100A50002340A5EB0425002DB8BF6D42AE42D8BFA0
:100A600013464268104CE45C14700E4A52F823306E
:100A7000B1FBF3F3C0F84C320C4B994203D98369B4
:100A800004221A7009E08369094AA2FB0101C1F33B
:100A90000751197001E00023E3E770BC704700BF05
:100AA000D34D6210A091000080920000FF6BDC0229
:100AB000819F5E162DE9F04F83B007460C4616461F
:100AC0001D469DF83030002B00F0DC80C2681278A3
:100AD00012F0200F40F0D280D4E01EB1042E06D9CF
:100AE000062E04D0012C05D1052E0CD005E04FF0C8
:100AF000010804E04FF0000801E04FF00008022C6C
:100B000003D13EB101E04FF00108032C04D1072EC0
:100B100007D001E04FF00108B8F1000F00F0B080FD
:100B200001E04FF00108002B57D097F84B32002B13
:100B300014BF02220022019297F84A32072B4CD8A8
:100B4000DFE803F0161F040D28313A431120019904
:100B500001F0E4FD1020019901F0E0FD3DE01220DC
:100B6000019901F0DBFD1320019901F0D7FD34E07C
:100B70000420019901F0D2FD0320019901F0CEFD7E
:100B80002BE00820019901F0C9FD0720019901F02F
:100B9000C5FD22E02220019901F0C0FD212001992C
:100BA00001F0BCFD19E02620019901F0B7FD2520D8
:100BB000019901F0B3FD10E03020019901F0AEFD84
:100BC0002F20019901F0AAFD07E03820019901F0DA
:100BD000A5FD3920019901F0A1FD54BB731E052B21
:100BE00027D8DFE803F011030A18261F334BC3F898
:100BF0000090043BC3F8009030E0314BC3F8009004
:100C0000043BC3F8009029E02E4BC3F800B0043B2E
:100C1000C3F800B022E02C4BC3F800A0043BC3F89B
:100C200000A01BE0294BC3F80090043BC3F80090E0
:100C300014E0012C08D1052E06D1254BC3F80090F5
:100C4000043BC3F8009013E0022C07D136B9214BC6
:100C5000C3F800A0043BC3F800A009E0032C07D1AF
:100C6000072E05D11C4BC3F800900433C3F8009045
:100C700087F84A6287F84B5240461CE000201AE091
:100C8000404618E040F2035240F2645A002D18BF6B
:100C90009246002D40F2032908BF4FF4197940F223
:100CA000037240F26471002D0CBF8B469346002CFA
:100CB0007FF418AF11E703B0BDE8F08F04A0044043
:100CC0000CA004400CC0044064D0044024C0044084
:100CD0002CB004403490044028D0044070B582B059
:100CE00004469DF818000D4629B936490E6846F0AD
:100CF00040060E600FE0012905D132490E6846F02A
:100D000080060E600EE0022905D12F490E6846F0DC
:100D100040060E6006E0032D04D12B490E6846F014
:100D200080060E6084F84922002184F851123AB9F5
:100D3000636920221A7022681170E269117010E054
:100D4000626970BB33E05B00DBB21370E2694300A1
:100D5000DBB205E04000C0B21070E2695B00DBB2BC
:100D6000137000230093204629469DF81C209DF80F
:100D70002030FFF79FFE20461449099AFFF744FEF2
:100D8000204629469DF82820FFF7F4FC94F84932C4
:100D90001BB9A36880221A7012E0A368C0221A70DF
:100DA0000EE02821117022689842CCD8D2E7202189
:100DB000117022685B00DBB21370E2690023CFE799
:100DC00002B070BD34800440288004400087930343
:100DD0002DE9F04F83B082468B4690F84A32072BBC
:100DE0005AD8DFE803F010043B3E070D0A1308262B
:100DF000072438E02226212435E030262F2432E053
:100E0000262625242FE0042603242CE03826392426
:100E100029E02046494601F04FFC2B46013B7FF478
:100E2000FDAF2046414601F047FC2B46013B7FF4D5
:100E3000FDAF304601F064FC18B9013F17F0FF0721
:100E4000E7D100218AF851129AF84A229AF84B32D7
:100E5000009150465946FFF72DFE1DE01126102443
:100E600001E0122613249AF84B32002B304614BFAF
:100E70000221002101F052FC2046012101F01CFC5E
:100E80002046012101F04AFC0B274FF000094FF4E6
:100E900096754FF00108CCE703B0BDE8F08F00BFB6
:100EA0002DE9F843054688461646994601F076FC3A
:100EB0000EB9D5F8686201F071FC0746AB681A7884
:100EC00012F0200F0ED0B4221A7032E0EC682478B1
:100ED00014F0200F06D1002385F84932AB68B02208
:100EE0001A7006E0002EF1D001F058FCC01B8642BB
:100EF000ECD8AB681B7813F0200F0ED12846414682
:100F0000FFF766FFEB681B7813F0200F05D1002375
:100F100085F84932AB68B0221A70AB681B7803F0D1
:100F2000200303F0FF0023B9042385F85132BDE804
:100F3000F88395F84832013BDBB2012B4ED801F023
:100F40004FFBB8F1030F0FD8DFE808F00205080BDC
:100F5000254B1B780AE0254B1B7807E0244B1B78B8
:100F600004E0244B1B7801E01F4B1B78834238DBE5
:100F70000F2804DC012089F80000BDE8F883B8F1EF
:100F8000030F23D8DFE808F0020A121AA0F11002BA
:100F9000D2B2154B1A700120BDE8F883A0F11002FF
:100FA000D2B2124B1A700120BDE8F883A0F11002F2
:100FB000D2B20F4B1A700120BDE8F883A0F11002E5
:100FC000D2B20C4B1A700120BDE8F883A0F11002D8
:100FD000D2B2054B1A700120BDE8F8830120BDE8AC
:100FE000F8830120BDE8F88318E400E019E400E08C
:100FF0004AE400E05BE400E00369490083F83C1147
:1010000003690122C3F8442200230371026982F8B4
:10101000513270472DE9F04383B0054614461F4610
:1010200000238DF80730D0F84432002B00F0D18037
:101030000FB9D0F86872AB691A7842F050021A7092
:10104000AB691A7802F0DF021A70EB6812221A708C
:1010500028463A460DF10703FFF722FF002800F06B
:10106000B88095F848321BB19DF80720002A53D06C
:1010700001F094FB8146012385F8513285F85042F6
:1010800000264FF002082AE02B69AA1992F83C21A9
:101090001A70EC68217811F0020FFBD084F8008000
:1010A000EB681978C9B211F0100F08D0072285F843
:1010B000512210221A70AB6880221A7089E011F058
:1010C000010F0BD01EB9052385F8513202E006232B
:1010D00085F85132AB6880221A707AE00136D5F873
:1010E00044329E4207D2002FCED001F057FBC9EB0D
:1010F00000008742C8D8D5F84432B3428CBF0423DD
:10110000002385F8513295F85032012BAB680CBFA3
:101110008022B0221A705CE05A1ED2B2012A58D83E
:10112000012285F8512285F850420022C5F840225C
:10113000022B14D1D5F84432042B18D80FE01368D1
:101140009B6833B913680021012018725972997293
:10115000D972136800221A765A769A76DA76AB68D4
:10116000F0221A702B6995F83C211A7031E00123A6
:1011700085F85A32D5F8642205F59F70D5F84442B7
:10118000033C11680B680023086011680120087196
:101190004B711168CB71116808724B728B72CB72F4
:1011A00011686042C8601068C18BA1B2C183126827
:1011B000D08AD182D5F86422296910680469016156
:1011C00010680375437510688371B1F1804FB9D30E
:1011D000B5E703B0BDE8F0832DE9F04383B00446E2
:1011E00016469DF828700B9D00208DF80700002BF7
:1011F00000F05781B3F5827F03D3082384F851327E
:101200004FE1C4F854320023C4F83431C4F8383103
:101210000DB9D4F86852A3691A7842F050021A70D6
:10122000A3691A7802F0DF021A70E36812221A70BA
:1012300020462A460DF10703FFF732FE002800F092
:10124000308194F8483223B19DF80720002A00F03D
:10125000958001F0A3FA8046022384F8513284F885
:1012600050722369720042F00102D2B21A70E26831
:10127000137813F0020FFBD002231370E268137887
:10128000DBB213F0100F08D0072384F8513210237B
:101290001370A36880221A7003E113F0010F06D0C7
:1012A000052384F85132A36880221A70F9E00323E1
:1012B00084F85132D4F85432012BA3680CBFA82211
:1012C000A0221A7023691B780226002745E00B78BC
:1012D00013F0020FFBD00E70002D00F0AA8001F079
:1012E0005DFAC8EB000085428CBF00230123D4F8CF
:1012F00038110231D4F85422914205D03BB194F810
:10130000592222B900E03B46A26882F80090D4F846
:1013100038110131D4F85422914280F09F80002B83
:1013200000F0918094F85922002A40F0AA808AE0C7
:10133000042284F8512201E084F8517294F850227A
:10134000012A06D13C22013A7FF4FDAFA268802138
:10135000117023B1012384F859324FF0A809D4F851
:101360003821D4F854329A4280F09B8094F851325C
:10137000DBB2032B40F09580E168A8E75A1ED2B299
:10138000012A00F28E80022284F8512284F85072E1
:10139000934244D1D4F85432042B40D9012384F829
:1013A0005A32D4F864322169186802680022016058
:1013B0001868027142711868C271B1F1804F02D38E
:1013C0001A68926832B91A680021012010725172AD
:1013D0009172D1721A680023137353739373D3738A
:1013E000D4F8642204F13005D4F8540201381168AD
:1013F0000F690D61116801250D754B7511688B71B1
:1014000011680D724B728B72CB72136841429961F5
:101410001368D98B81B2D9831368DA8AD982A36819
:10142000F0221A702369720042F00102D2B21A70DF
:1014300037E0D4F838210232D4F854329A423FF4DB
:1014400062AF3B4663E722691178D4F83821501C1B
:10145000C4F83801224482F830107AE784F85972CF
:10146000A268B021117022691178D4F83821501C7B
:10147000C4F83801224482F83010002B3FF45CAFEE
:1014800056E784F85972A268B02111702269117868
:10149000D4F83821501CC4F83801224482F83010A6
:1014A00046E703B0BDE8F083036993F85132043B8B
:1014B000042B0CD8DFE803F0091005070300012016
:1014C000704703207047042070470420704700795C
:1014D000003018BF012070470220704790F8513249
:1014E00013F0FF0F1BD090F85132DBB2052B18D050
:1014F00090F85132DBB2062B15D090F85132DBB2A6
:10150000072B12D090F85132DBB2042B0FD090F899
:101510005102C0B2082814BF0020012070470120EA
:10152000704701207047012070470120704701205B
:10153000704700BF70B50446154601F02FF90DB98C
:10154000D4F8685201F02AF906462046FFF7C6FF94
:1015500000283AD1002DF8D001F020F9801B8542F7
:10156000F3D801F01BF9801B854210D894F848325B
:10157000022B0CD194F85A3213F0FF0F07D02046FB
:10158000FFF7ACFF0028FAD0042384F8513294F816
:101590005132DBB2012B09D094F85132DBB2022B6D
:1015A00004D094F85132DBB2032B02D1042384F827
:1015B0005132F023013B7FF4FDAF94F8513213F028
:1015C000FF0F14BF0020012070BD002DDFD0C8E741
:1015D000F8B507460E461546069C084611461A46BB
:1015E0002346FFF717FD304629462246FFF7A2FFA4
:1015F0003846FFF759FFF8BD70B582B004460D4676
:101600001E468BB19DF81830009307990191294629
:101610003346FFF7E1FD20462946079AFFF78AFF88
:1016200020B1D4F8380102E0002000E0002002B030
:1016300070BD00BFD0F83421D0F838319A4208D2BA
:10164000D0F834315A1CC0F83421184490F83000D6
:1016500070474FF0FF30704708B50069FFF7EAFFA9
:1016600008BD00BFD0F83421D0F838319A423DBFD0
:10167000D0F83431C01890F830004FF0FF30704788
:1016800008B50069FFF7EEFF08BD00BF70B504465E
:10169000C2681578EDB281680B78DBB2806900789A
:1016A000C6B213F0200F00F0C48113F0100F00F049
:1016B000058194F85A32DBB2022B04D094F85A32E6
:1016C000DBB2032B4CD1D4F864120B689B8B03F074
:1016D00080039BB2002B00F0608294F85A32DBB298
:1016E000022B40F05A824EE2137813F0800FFBD0A9
:1016F0000A79B64B1A70002384F85A32D4F844326F
:10170000013BC4F840322369D4F84022224492F8C5
:101710003C211A7020E0AE4B1A680B7901219940E8
:10172000114219D0AB4A1370D4F864321A79AA4B1B
:101730001A70002384F85A3215F0100F0CD00723CA
:1017400084F85132E36812221A70A36880221A705A
:101750000023C4F8403270BDE36802221A7070BDE5
:1017600094F85132DBB2012B56D115F0100F0DD089
:10177000002384F85A32072184F851121221117083
:10178000A26880211170C4F8403270BD15F0010FBD
:101790000FD0002384F85A32D4F840321BB9052305
:1017A00084F8513202E0062384F8513280230B7012
:1017B0002EE0D4F840320133C4F84032D4F8442249
:1017C00093420AD3002384F8513294F85032012B0B
:1017D0000CBF8023B0230B701AE094F85A32DBB2AE
:1017E000012B0ED1022384F85A32F1230B70D4F866
:1017F00064321A79794B1A70236994F83D211A7072
:1018000006E02369D4F84022224492F83C211A7061
:10181000E36802221A7070BD94F85132DBB2022BD9
:1018200036D115F0100F08D0072384F85132122357
:101830001370A36880221A7070BD15F0010F05D0D7
:10184000052384F8513280230B701DE094F85A323E
:10185000DBB2012B0CD1022384F85A32E1230B7046
:10186000D4F864321A795D4B1A7023691B780BE047
:10187000032384F85132D4F85432012B0CBFE823EF
:10188000E0230B7023691B78E36802221A7070BD95
:1018900094F85132DBB2042B0AD194F85032012B68
:1018A0000CBF8023B0230B70E36802221A7070BD56
:1018B00080230B70E36802221A7070BD94F85A32CC
:1018C000DBB2022B04D094F85A32DBB2032B56D190
:1018D000D4F864321A68928B02F0800292B2002A25
:1018E00000F06C8194F85A22D2B2022A40F066814C
:1018F0005AE11A79354B1A70002384F85A3294F859
:101900005132DBB2042B1CBF002384F85132A36890
:10191000B0221A70D4F85432013BC4F83831D4F8EC
:1019200038315A1CC4F8382122691278234483F8CC
:10193000302094F85032012B1DD13C23013B7FF421
:10194000FDAFA36880221A7015E0214A12681B7946
:101950000121994011420ED01F4A1370D4F864320D
:101960001A791C4B1A70002384F85A3284F85132C9
:10197000A36880221A70E36802221A7070BDD4F83E
:1019800038210232D4F854329A4200F01E8194F881
:101990005132DBB2042B04D194F85932002B00F001
:1019A0001481D4F838210132D4F854329A4280F0AC
:1019B0001A8194F85132DBB2042B40F0098194F87B
:1019C0005932002B40F00F8102E100BF1C80004023
:1019D0002C8000401F8000401E8000401B80004083
:1019E000002384F85132A368B0221A70D4F8383139
:1019F0005A1CC4F8382122691278234483F8302015
:101A000094F85032012B06D13C23013B7FF4FDAF0B
:101A1000A36880221A7094F85132DBB2042B04D1EF
:101A200094F85932002B00F0E880E36802221A7023
:101A300070BD15F0100F0AD01023137015F0400F71
:101A400008D1A3691E70E36802221A7070BD15F0F8
:101A5000400F44D094F85132DBB20A2B04D1D4F8B1
:101A60005C32002B40F0CD8015F0040F1ED009230E
:101A700084F851320023C4F84432A368D0221A708B
:101A800023691B785B0884F85232D4F8603203B1C2
:101A90009847D4F844320BB984F83C31236994F860
:101AA0003C211A700123C4F8403212E0A3691A786D
:101AB00042F020021A700A2384F851320023C4F83D
:101AC0003831A368C0221A7023691B785B0884F838
:101AD0005232A3691E70E36802221A7070BD13F0BF
:101AE000100F20D015F0010F15D1D4F84022D4F8F2
:101AF00044329A4208D2D4F840325A1CC4F84022E8
:101B0000234493F83C2100E0002223691A70A36863
:101B1000D0221A7031E0C0230B7023691B78002398
:101B200084F8513229E094F85132DBB20A2B24D1E7
:101B300016F0400F11D0002384F85132D4F85C32F3
:101B40002BB10022C4F83421D4F838019847A36996
:101B50001E70E36802221A7070BD23691B78DAB226
:101B6000D4F83831B3F5817F07D8D4F83831591C0F
:101B7000C4F83811234483F83020A3691E70E36849
:101B800002221A7070BD0A79224B1A70A368F022E3
:101B90001A70032384F85A32DEE594F85A32DBB225
:101BA000032B7FF4B8AD9FE51A791A4B1A70A3681E
:101BB000E8221A70032384F85A32DCE694F85A2299
:101BC000D2B2032A7FF4C1AE93E6E8230B70E8E6B5
:101BD000D4F838315A1CC4F83821226912782344C9
:101BE00083F8302017E7002384F8593294F85132F3
:101BF000DBB2042B7FF4F4AEF5E6012384F859320E
:101C000013E70023C4F83431D4F83801D4F85C3237
:101C1000984729E71F80004008B502480021FFF7D8
:101C200035FD08BD6407FF1F08B502480121FFF715
:101C30002DFD08BDD009FF1F08B502480221FFF79E
:101C400025FD08BD3C0CFF1F08B502480321FFF726
:101C50001DFD08BDA80EFF1F70B5154E30460021B2
:101C6000FEF770FD134D144C30462946224606F00F
:101C7000E3FC124E30460121FEF764FD3046294652
:101C8000224606F0D9FC0E4E30460221FEF75AFDE0
:101C900030462946224606F0CFFC0A4E3046032144
:101CA000FEF750FD30462946224606F0C5FC70BDC1
:101CB000681AFF1F190700006007FF1F401AFF1F67
:101CC000541AFF1F7C1AFF1F2DE9F04F87B00746FB
:101CD0000C4693469846BDF840602C4D2846394640
:101CE000FFF78AF928462146FEF7D6FC29696A7B68
:101CF0000024009428460123FFF76AFC2869697BC9
:101D00000123009301943A465B46FFF775FC204B94
:101D10001B680393DDF80C902F46DFF874A006E0F3
:101D2000E5B20846FFF786FC08F805000134E5B285
:101D30003969D1F83821D1F834319A4220D0002EB7
:101D4000EED0DAF800300493049BC9EB0303B342EE
:101D5000E6D32A4600E02A460D4B1B680593059BF7
:101D6000C9EB0309B14502D3934588BFFF25074856
:101D7000427B002300930123FFF72AFC68B202E0B4
:101D8000002EE8D1F3E707B0BDE8F08F681AFF1F17
:101D9000901AFF1F10B582B014460093012223460B
:101DA000FFF792FF02B010BD30B583B015461C4658
:101DB0000DF10702BDF81C30FFF7ECFF034668B1D8
:101DC0002A1B0132012101FA04F4013C94409DF8E0
:101DD00007100C4044FA02F206990A70184603B044
:101DE00030BD00BFF0B583B086460E4615461F468F
:101DF000104C20467146FFF7FFF820463146FEF7AB
:101E00004BFC5DB17C1E6E1E57FA86F6094D2846C6
:101E100014F8011FFEF740FCB442F8D105480169EF
:101E2000427B002300930123FFF7D2FB012003B084
:101E3000F0BD00BF681AFF1F00B583B002AB03F806
:101E4000012D0122FFF7CEFF03B05DF804FB00BFB8
:101E5000F0B583B005460C4616461F460DF1070245
:101E60000C4B1B88FFF796FF37B10122B2409DF85B
:101E700007301A43D2B205E00122B2409DF8073084
:101E800023EA02028DF8072028462146FFF7D4FFF7
:101E900003B0F0BD1411FF1F2DE9F04182B0804660
:101EA0000F4614461E460DF10702134D2B88FFF70F
:101EB00071FFE0B1C6F108039DF820109940C9B246
:101EC000C4F107031941321B0732FF2343FA02F220
:101ED0000134A3401A439DF8070002400A43D2B2DE
:101EE0008DF8072040463946FFF7A6FF00E00020A6
:101EF00002B0BDE8F08100BF1411FF1F682303701A
:101F0000704700BF08B50A4600781921FFF794FF13
:101F100008BD00BF00B583B0007800911A210222ED
:101F20000323FFF7B9FF03B05DF804FB08B50B46C8
:101F300000781B210722FFF78BFF08BD08B50B4671
:101F400000781B210622FFF783FF08BD08B50B466A
:101F500000781B210522FFF77BFF08BD00B583B089
:101F6000007800911B2104220223FFF795FF03B0A4
:101F70005DF804FB10B50446024612F8010B0D2172
:101F8000024B1B88FFF706FF607810BD1411FF1F7E
:101F900010B50446024612F8010B0E21024B1B88B5
:101FA000FFF7F8FE607810BD1411FF1F10B582B066
:101FB0000446034613F8010B044A128800920F21CD
:101FC0000222FFF781FE607802B010BD1411FF1FDE
:101FD00010B50446024612F8010B0021024B1B8883
:101FE000FFF7D8FE607810BD1411FF1F10B504462E
:101FF000024612F8010B0121024B1B88FFF7CAFEB3
:10200000607810BD1411FF1F10B50446024612F887
:10201000010B0221024B1B88FFF7BCFE607810BD4C
:102020001411FF1F08B50B4600781C210722FFF78B
:102030000FFF08BD08B50B4600781C210622FFF7EC
:1020400007FF08BD08B50B4600781C210522FFF7E5
:10205000FFFE08BD00B583B0007800911C2104226A
:102060000223FFF719FF03B05DF804FB00B583B04E
:10207000007800911D2102220323FFF70DFF03B01A
:102080005DF804FBF0B583B004460F4616461D46C6
:10209000034613F8010B154A128800923B210E22C9
:1020A000FFF712FE6278A37843EA02233B80E278CE
:1020B000237943EA022333806279A37943EA022336
:1020C0002B80627AA37A43EA0222089B1A80E27A82
:1020D000237B43EA0222099B1A80627BA37B43EAAB
:1020E00002220A9B1A8003B0F0BD00BF1411FF1F2B
:1020F0002DE9F04F2DED048B9BB005460E460024D4
:10210000ADF81440ADF81640ADF81840ADF81A40DF
:10211000ADF81C40ADF81E40089409940A940B9445
:102120000C940D940E940F94109411941294139493
:102130002146FFF7E7FE28460221FFF7EBFE28467F
:102140002146FFF70BFF28460221FFF78FFF2846A5
:102150002146FFF77FFFC8240DF11A03009307AB58
:1021600001930DF11E030293284605A90DF11602F5
:1021700006ABFFF787FFBDF914200B9B13440B93AD
:10218000BDF916200C9B13440C93BDF918200D9B30
:1021900013440D93BDF91A20089B13440893BDF90D
:1021A0001C20099B13440993BDF91E200A9B13446C
:1021B0000A93013CD0D10023C9480BAA995880FB4F
:1021C0000174C917C1EBA411995008AA995880FB52
:1021D0000174C917C1EBA411995004330C2BECD135
:1021E00028460121FFF71EFF28460121FFF722FFA5
:1021F00028460121FFF726FF28460121FFF796FE1A
:1022000028460121FFF79AFE28460121FFF79EFE8E
:10221000192000F0E7FAC8240DF11A03009307AB68
:1022200001930DF11E030293284605A90DF1160234
:1022300006ABFFF727FFBDF914200E9B13440E9346
:10224000BDF916200F9B13440F93BDF91820109B66
:1022500013441093BDF91A20119B13441193BDF937
:102260001C20129B13441293BDF91E20139B134490
:102270001393013CA4B2002CCED1002398480EAA9F
:10228000995880FB0174C917C1EBA411995011AA88
:10229000995880FB0174C917C1EBA41199500433FC
:1022A0000C2BECD128460021FFF7BCFE284600216C
:1022B000FFF7C0FE28460021FFF7C4FE2846002194
:1022C000FFF734FE28460021FFF738FE284600219C
:1022D000FFF73CFE192000F085FA2846FFF74AFE7A
:1022E00083462846FFF754FE82462846FFF75EFEE7
:1022F00081462846FFF76CFE80462846FFF776FEAB
:1023000007462846FFF780FE04469FED718B07EED7
:1023100010BAF8EE477AB7EE009A77EEC97A17EE60
:10232000900A05F02BFEB0EE480AF0EE680A41EC88
:10233000110B04F091FB51EC100B67A3D3E90023C0
:1023400005F070FE06F028F9149007EE10AAF8EEDA
:10235000477A77EEC97A17EE900A05F00FFEB0EED5
:10236000480AF0EE680A41EC110B04F075FB51ECE1
:10237000100B59A3D3E9002305F054FE06F00CF925
:10238000159007EE109AF8EE477A77EEC97A17EEB5
:10239000900A05F0F3FDB0EE480AF0EE680A41EC51
:1023A000110B04F059FB51EC100B4BA3D3E90023A4
:1023B00005F038FE06F0F0F8169007EE108AF8EEF9
:1023C000477A77EEC97A17EE900A05F0D7FDB0EE9E
:1023D000480AF0EE680A41EC110B04F03DFB51ECA9
:1023E000100B3DA3D3E9002305F01CFE06F0D4F842
:1023F000179007EE107AF8EE477A77EEC97A17EE63
:10240000900A05F0BBFDB0EE480AF0EE680A41EC18
:10241000110B04F021FB51EC100B2FA3D3E9002387
:1024200005F000FE06F0B8F8189007EE104AF8EE36
:10243000477A77EEC97A17EE900A05F09FFDB0EE65
:10244000480AF0EE680A41EC110B04F005FB51EC70
:10245000100B21A3D3E9002305F0E4FD06F09CF85E
:102460001990314617AA0C360023DFED1E7A0EA80C
:102470001C580BA81858201A06EE900AF8EEE66AC7
:1024800066EEA76A14A8184490ED007A86EE877A63
:1024900037EE677AA1EC017AF2EC016A11A81C58B8
:1024A00008A81858201A07EE100AB8EEC77A27EEC7
:1024B000277A87EE267A37EE677AA6EC017A04331C
:1024C0000C2BD4D11BB0BDEC048BBDE8F08F00BF4A
:1024D000000000C0F528F03F000000000078A44094
:1024E0001F85EB510000C84208B50B4600786B21F0
:1024F0000622FFF7ADFC08BD00B583B0007800915F
:102500006B2102220323FFF7C7FC03B05DF804FB35
:1025100010B504460621FFF7EFFF20460021FFF724
:102520001DFD20460021FFF795FD20460021FFF705
:10253000DBFF10BD10B582B00446034613F8010B53
:102540000093054B1B880193752107220823FFF791
:102550002BFC607802B010BD1411FF1F08B5FFF707
:10256000E9FF732814BF0020012008BD024B1A6840
:1025700001321A60704700BF901AFF1F08B50D4C5A
:10258000236813F4802F01D000F0BCFA236813F401
:10259000806F01D001F040FE236813F4006F01D07A
:1025A00002F0FCF9236813F4805FE9D002F0BAFC72
:1025B000E6E700BF3480044008B5FFF7DFFF00BF47
:1025C0001022014B1A80704700200540704700BF61
:1025D000024A136818441060184670471811FF1F0C
:1025E000EFF31383ABB9EFF31083ABB9EFF30583CC
:1025F00023B10F2B05D9094A985C03E04FF4807092
:1026000000E00020EFF311833BB1834238BF18464E
:1026100070474FF0FF30704700207047F0E300E054
:102620000B4B1B78DBB2802B0ED10A4A0A4B1A6087
:10263000002203F5573303F2BD331A70044A1378AE
:10264000DBB2802BFBD001E00020704701207047F7
:1026500003E0074000002822448004400B4B1B7815
:10266000DBB2012B0FD1602203F1804303F5FC2381
:102670001A70064A1378DBB2802BFBD1044A054B53
:102680001A60012070470020704700BF03E0074038
:102690000000060244800440044B00221A600449F2
:1026A0000A60044A106010221A60704714D0034078
:1026B00004D0034000D003403F281ED80F4B53F8EE
:1026C000303093F8802212F0FF0F08D019B10122A8
:1026D00083F880207047012283F800217047074B60
:1026E00003EBC000436821B11A6842F003021A608C
:1026F00070471A6822F002021A607047B892000010
:102700003F2806D8044B53F8303093F80002C0B28B
:1027100070470020704700BFB89200003F283AD8A9
:102720001D4B03EBC0035B68012919D0042925D098
:10273000194A52F83020002082F8800219B94FF46B
:1027400080721A607047022903D140F203121A60A6
:10275000704703290CBF4FF4817200221A60704742
:102760000D4A52F83020012182F880124FF4A272F3
:102770001A601A6822F020021A607047064A52F85E
:102780003020012182F880124FF4A2721A601A6878
:1027900042F020021A607047B892000072B60D4BEA
:1027A0001B680D4A12680D49096862B611F0806F06
:1027B00002D0322B88BF0132C3F52F3303F21F330F
:1027C0009B080749A1FB03039B084FF47A7000FBA9
:1027D0000230704718E000E0901AFF1F04ED00E09F
:1027E000176CC11638B50546FFF7D8FF044625B962
:1027F00038BD013D0AD004F57A74FFF7CFFF001B06
:10280000B0F57A7FF5D201F0F3F8F6E738BD00BFF6
:1028100070B5404B4FF000621A604FF080521A6062
:102820004FF000521A604FF080421A604FF00042A1
:102830001A600022384B1A604EF6FF70043318609D
:10284000282336490B6008310B6008310B600831D2
:102850000B6008310B6008310B6008310B600831E8
:102860000B602F4D2B602F4C236001F5002101F6EA
:10287000D8710B6008310B6008310B6008310B60B8
:1028800008310B6008310B600921274E316006F5D5
:1028900080560436326004363060043633600836C1
:1028A0003360143E316006F5FE260436326004368D
:1028B00030600436336008363360143E316006F50C
:1028C000805604363260043630602B60236017482F
:1028D00001601749086840F40070086028390868EA
:1028E00040F00070086001F501210A6047F6FF71B1
:1028F000104A1160043213600832136008220E4B34
:102900001A6001F0A5F84FF4C870FFF76BFF00F0F4
:1029100079FC70BD04E100E0048003400C800340BA
:102920000C900B4014900B400080034000900B4033
:102930002C80044008900C4000900C4030B40E4BAA
:102940001B7843F002020D4C04EBC20460600C489B
:10295000007800280CBF8824C82444EA0141074DB0
:1029600045F8321080F00100054A107083F0010331
:10297000014A137030BC7047FC1AFF1F0000FF1F94
:10298000751BFF1F10B4431E032B11D872B60A4AE1
:1029900052F8230050B14268074941F82320074A02
:1029A00032F813400188611A22F8131062B600E071
:1029B00000205DF8044B7047EC1AFF1F341FFF1F07
:1029C000013803280DD872B6074B53F820302BB1CD
:1029D000002001305B68002BFBD100E0002062B6D4
:1029E00070470020704700BF401BFF1F38B572B60C
:1029F00001231B491B4C5A1812F8012C12F0080F26
:102A000024D09A0054F832506DB9164B03EBC20132
:102A100008304860144943F83210144B1A78013AD0
:102A20001A7062B638BD42F0010254F832506DB9E6
:102A30000C4B03EBC201083048600D4943F83210DB
:102A40000A4B1A78013A1A7062B638BD0133052B69
:102A5000D1D162B60022054B1A7000F045FC38BD9A
:102A6000F09400000000FF1F880040006A1BFF1F59
:102A7000C800400010B4431E032B37D8400140F07B
:102A800010001C4A104472B61B4AD25C032A09D8B3
:102A9000DFE802F019021B050830022216E00830B8
:102AA000042213E0154A52F823201AB9134A42F8B7
:102AB000231003E0124A52F823205160104A42F8D2
:102AC000231062B612E0032200E005220A4CE25411
:102AD00001F10803436000F00803002B0CBF8823BA
:102AE000C8230A8843EA0243036062B65DF8044BD8
:102AF000704700BF0000FF1FA81AFF1F401BFF1FE9
:102B0000501BFF1F2DE9F84FA34CDFF8E092DFF8D0
:102B1000E0A2DFF8E0B22578EDB215F0040F1DD089
:102B20009E4B1B7813F0FF0F16D09D4B1B7803F0C4
:102B3000FF022BB1531EDBB2994A137003B900BEDA
:102B4000984B1B7803F0FF0233B1531EDBB2954A5A
:102B500013700BB900F026FD0423237015F0080F45
:102B600000F0E48299F80030DBB21D0940F02182C8
:102B70008D4D9E0805EBC6035A6855F83630C3F3F1
:102B80008303013B0C2B00F21082DFE813F0CB0132
:102B9000CB010E020E020E020E020E020E02E80120
:102BA0000E020E020E020D00804913680B6052687F
:102BB0004A607F4A45F8362000227E490A607A49F9
:102BC0000A618A6101217C4A11709BB240F28162E4
:102BD000934218D8B3F5D06F2ED2B3F5817F00F0B1
:102BE0001E8106D8802B00F0C980822B00F0CC809B
:102BF00066E140F20232934200F02681B3F5A06F05
:102C000000F062815CE142F22102934200F0868191
:102C100007D8B3F5086F00F0AB80B3F5106F11D093
:102C20004EE142F22122934200F0418142F22132F0
:102C3000934200F0498143E1604B5D68002D40F014
:102C4000188130E1594B9A78544B1A70564D05F162
:102C500080062B6A13F0800F03D0686A083800F0F2
:102C600043FB0835B542F4D1DFF88C8100263746A6
:102C7000534AB05828B1456800F036FB0DB12846DC
:102C8000F9E700234E4973504E4AB3504E4BF0586B
:102C900028B1456800F028FB0DB12846F9E700236C
:102CA00049497350494AB35028F8023F484BFB5CEE
:102CB000023B032B0AD8DFE803F0020602060022DB
:102CC000434BDA5502E00122414BDA550137043615
:102CD000102ECDD100223F4B1A7001253E4EDFF859
:102CE0001C81314F05EB080313F8013C06F8043B47
:102CF00013F0080F2DD000F0D7FA48B1A90007EB68
:102D0000451200F108035360344A47F8312007E0C8
:102D1000AB00002247F833202E4B1A7801321A708C
:102D200000F0C2FA58B1AB0043F0010307EBC30156
:102D300000F108024A601E4A47F8332009E0AB0060
:102D400043F00103002247F83320224B1A78013266
:102D50001A70AA0042F00201002347F8313042F015
:102D6000030247F8323001351D4B9E42BAD11EE2B4
:102D70000A4B1B781B4D2B700127AAE0194D00232D
:102D80002B706B700227A4E0084B9B88042B37D96B
:102D90000F22154B1A70C1E080200740741BFF1FE3
:102DA000FD1AFF1F761BFF1F0000FF1F601BFF1F88
:102DB000C8004000941AFF1F751BFF1FF494000009
:102DC000EC1AFF1F981AFF1F401BFF1F501BFF1F0D
:102DD000A81AFF1F6A1BFF1FC4200740880040007D
:102DE000D42007406C1BFF1FC020074090200740E5
:102DF0009420074098200740321FFF1FF0940000E6
:102E0000A04A0021117051709F4A12F8233013F02C
:102E1000020F5CD09B4D01232B70022759E09B4B86
:102E20009B8803F07F03042B02DC984A52881AB176
:102E30000F22954B1A7071E0934A12F8231021F07B
:102E4000020102F82310B2E1904B9B8803F07F034C
:102E5000042B02DC8D4A52881AB10F228A4B1A7059
:102E60005CE0894A12F8231041F0020102F82310B5
:102E70009DE1864B5E889F88854BA3F10C0211462D
:102E800033F80C0CB04209D133F80A0CB84205D122
:102E9000360A032E0CBF2F7817891AE00D690C3300
:102EA0000C32002DEBD10F22774B1A7036E0794BA4
:102EB0001A68794B1A60754B9A78784B1A7076E1DC
:102EC0000F22714B1A7029E000273D4601E00227CE
:102ED0006C4D6E4BDB889F4228BF1F46402F34BF8E
:102EE0003E46402628463146FFF728FD3544BF1BA5
:102EF00003D13F2E00F2608110E0402F34BF3E46E8
:102F0000402628463146FFF719FD3544BF1B01D145
:102F10003F2E03D9624B1D60624B1F8001238AF84C
:102F2000003042E0594B198842F22103994212D1F4
:102F30005D4BD81D12F8011B03F8011F8342F9D124
:102F40005A4B1B68862B02D10F22594B1A70002056
:102F50000146FFF7F3FC574B45F8363025E0504B60
:102F60001E68BEB14F4FB7F80080B8F1400F34BFB4
:102F70004546402530462946FFF7E0FCC5EB0803EF
:102F80009BB23B800BB9402D01D1354400E00025B8
:102F9000434B1D603D4B1B88B3F5A06F05D13B4BE8
:102FA00000225A709B788BF8003001238AF8003099
:102FB000B9E0414E9F0806EBC708D8F80420A2F1FB
:102FC0000800013DEDB213F0080F47D000F08CF976
:102FD0003A4B53F825304BB35A68384941F825200D
:102FE00003F10802C8F80420354A525D032A12D8BA
:102FF000DFE802F002060A0E0321314A51550AE0C9
:1030000002212F4A515506E005212D4A515502E073
:1030100004212B4A515518F0080F0CBF8822C822F2
:103020001B8842EA034346F837307CE0244B5B5D63
:10303000032B0BD8DFE803F0777702060022204B42
:103040005A5570E001221E4B5A556CE018F0080FDB
:103050000CBF022203221A4B5A5564E056F837304F
:103060001B0C22F8083C002B55D0002322F8063C0C
:1030700042F8043C134B53F825302BBB114B43F85B
:10308000250025E06C1BFF1FC0200740601BFF1FB1
:1030900000950000901AFF1F441FFF1F841BFF1F95
:1030A000941AFF1F681BFF1F3B1FFF1F3C1FFF1FC2
:1030B000FD1AFF1FC80040000000FF1F401BFF1F3C
:1030C000A81AFF1FEC1AFF1F3F4B53F8253058601A
:1030D0003D4B43F825003D4B33F8151032F8082CD2
:1030E0000A4423F8152000F0DFF860B100F108036E
:1030F000C8F8043018F0080F354B364A08BF13469D
:1031000046F837300FE0002346F83730324B1A7854
:1031100001321A7007E018F0080F2D4B2D4A08BF36
:10312000134646F8373008232370F4E415F0010FF6
:1031300022D02A4902230B700022294B1A70294BF6
:1031400024481860284C5C6098602848D8601A6150
:103150009A610D20264B1870FF232648037008380B
:10316000037018300270244A13709F22234B1A7088
:1031700001230B70BDE8F88F15F0800F05D00D22EC
:103180001B4B1A708022403B1A7015F0020F06D0BC
:10319000184B1A78D2B21A700222083B1A7015F036
:1031A000100F0ED01022164B1A70BDE8F88F0020B9
:1031B0000146FFF7C3FBB1E628460021FFF7BEFB3F
:1031C000ACE6BDE8F88F00BF981AFF1F341FFF1F41
:1031D000C8004000880040006A1BFF1F9420074081
:1031E000FC1AFF1F0000FF1FAC1AFF1F001BFF1F70
:1031F000C0200740882007408C20074084200740DB
:103200008020074008B502F0F5FF002320491A4648
:103210005A50C81842600833882BF9D11D4B1A68E0
:1032200042F480221A601C4B1A6842F040721A6005
:10323000032203F5C92303F5A2731A70A022043BED
:103240001A70134BC3F30721144A1170C3F30741DB
:10325000143211701B0E04321370FF23343A1370B2
:1032600008321370783A13700123843213700021EE
:103270006C3211707C3A13707022094B1A704FF443
:103280000012A3F231331A601022064B1A7008BDE7
:103290000000FF1F3480044000D800409C200740FD
:1032A00035E400E00821074072B60D4B1A68B2FA07
:1032B00082F30B2B02D962B6002070474FF0004119
:1032C000D94022EA010206490A6062B6054903EBC9
:1032D000C303DB00C8180022CA504260704700BF19
:1032E0001C11FF1F0004FF1F08B50F4BC31A0F4A24
:1032F000A2FB03131B090B2B14D80D4A12783AB109
:103300000C4A127812F0FF0F02D0FFF76FFB08BDD6
:1033100072B6094A4FF0004121FA03F311681943CC
:10332000116062B608BD00BF0004FF1F398EE3388C
:103330006A1BFF1F741BFF1F1C11FF1F10B5134BCF
:103340001B6853B9124B1B7813F0FF0F18D00320E2
:10335000FFF718FB0D4B1860A8B10C4B1868438899
:103360005A1C03441C7A03889A4206D3FFF7BCFF19
:103370000022064B1A60204610BD4280204610BD38
:103380004FF0FF3010BD4FF0FF3010BD801BFF1F0E
:10339000741BFF1F08B50D4B1B6883B90C4B1B78C2
:1033A00013F0FF0F08D00320FFF7ECFA074B18606B
:1033B00028B94FF0FF3008BD4FF0FF3008BD034B78
:1033C0001B685A881344187A08BD00BF801BFF1F72
:1033D000741BFF1F044B9888044B1B681BB11A8891
:1033E0005B88D31A18447047341FFF1F801BFF1FD0
:1033F00010B50B4B1B7813F0FF0F0FD0094B18685B
:1034000020B1FFF771FF0022064B1A60032420460B
:10341000FFF7B8FA10B1FFF767FFF8E710BD00BF7C
:10342000741BFF1F801BFF1F2DE9F84F044601226C
:10343000374B1A708B46002964D00E46DFF8E080C7
:10344000DFF8E0909A46334FD8F800307BBB99F80C
:10345000003013F0FF0F06D100222D4B1A704FF0F1
:10346000FF30BDE8F88F2C4D0420FFF7A9FA07289C
:103470000AD801238AF80030FFF716FFC8F80000C9
:10348000A8B900238AF80030013D01D03B7833B160
:103490000122204B1A704FF0FF30BDE8F88F00F08A
:1034A000A7FA99F8003013F0FF0FDDD1D4E700231D
:1034B0003B70D8F800104A88C2F14005AE4238BFD0
:1034C000354602F108030B442A444A80761B3DB17D
:1034D000254414F8012B03F8012BAC42F9D100E08C
:1034E00025464B883F2B07D940230B800420FFF74C
:1034F000C1FA0023C8F800300522084B1A700EB13B
:103500002C46A1E70022024B1A705846BDE8F88FFE
:10351000771BFF1F7C1BFF1F21480100761BFF1F2D
:10352000781BFF1F741BFF1F00B583B002AB03F8AD
:10353000010D18460121FFF777FF03B05DF804FB8A
:1035400010B5144B1B7813F0FF0F21D00122124B42
:103550001A70124B196851B10024114B1C704B8822
:103560000B800420FFF786FA0C4B1C600DE0FFF780
:103570009BFE014630B10022094B1A700420FFF770
:1035800079FA02E00122064B1A700022024B1A70EF
:1035900010BD00BF741BFF1F771BFF1F781BFF1F91
:1035A000761BFF1F08B50E4B1B7813F0FF0F16D1CB
:1035B0000C4B196841B14B880B800420FFF75AFA75
:1035C0000022084B1A6008BDFFF76EFE014618B1D5
:1035D0000420FFF74FFA08BD0122034B1A7008BD03
:1035E000771BFF1F781BFF1F761BFF1F30B472B6BF
:1035F00099B902688AB103790F2B0ED82849098836
:10360000194111F0010F08D003F1007303F5906325
:10361000B2EB431F01D162B63FE0214B1D88294622
:10362000002341FA03F212F0010F2ED1012202FA17
:1036300003F425431A4A158062B6DAB202711949B9
:103640000C6844F002040C6004390C6844F0020475
:103650000C6040F2824414490C601A310A70043143
:103660000A7006390A7007310A7003F1007303F516
:1036700090635B01036000221A605A609A60DA600E
:103680001A615A619A61DA6107E00133102BC8D1DF
:1036900062B6002303601023037130BC704700BF83
:1036A000861BFF1F408004400080004003790F2BE1
:1036B00010D8094A137072B6084B0279012101FA39
:1036C00002F2198821EA02021A8062B610230371FD
:1036D00000230360704700BF1A800040861BFF1F55
:1036E00008B5FCF7BFFEFCF7C3FF00F081F9FAE76D
:1036F00008B504F0DFFF08BD08B504F0E3FF08BD1E
:1037000000B583B0054B1B88ADF8043003685B68D7
:1037100001A90222984703B05DF804FBB8940000A9
:10372000F0B58BB0164622B903681B68C9B298473A
:103730002FE0012A08BF0A2621B930228DF8252062
:10374000212417E021243746B1FBF6F506FB1515B9
:10375000EDB22246092D94BF30353735EDB20DF16B
:10376000280E724402F8245CB1FBF7F111B1013C60
:10377000E4B2E9E733B1013CE4B20AAB23442D22C1
:1037800003F8242C03685B6801A92144C4F12202D8
:1037900098470BB0F0BD00BF2DE9F04F2DED028B27
:1037A00085B08146B0EE408AF0EE608A884603F02C
:1037B00029F940B9D9F800305B6848466E490322C0
:1037C00098478246C7E0B0EE480AF0EE680A03F078
:1037D00019F9012808D1D9F800305B6848466749D3
:1037E000032298478246B6E051EC180B4FF0604236
:1037F000634B04F0A7FE40B1D9F800305B6848463F
:103800006049032298478246A5E051EC180B4FF01F
:1038100060425D4B04F078FE40B1D9F800305B683F
:103820004846584903229847824694E051EC180BC9
:103830000022002304F068FE50B118EE102A18EEA2
:10384000901A01F1004343EC182B4FF0010A01E0FC
:103850004FF0000AB8F1000F6ED04FF0000B0024BB
:103860004A4D41A7D7E900672046294632463B46E4
:1038700004F0D8FB04460D460BF1010B5FFA8BF305
:103880009845F1D82AE03E462046294653EC182BAD
:1038900004F0C8FB04460D4604F05EFEC0B2771C7F
:1038A000FFB204AB1E4400F1300306F8103C04F0F4
:1038B00053FB02460B462046294604F0FFF9044616
:1038C0000D464745DFD101E04FF00108D9F800303F
:1038D0005B6848466946424698473CE051EC180B05
:1038E00022462B4604F0ECF904460D4604F034FE63
:1038F000064604F021FB02460B462046294604F00A
:10390000DDF904460D46484631460A225346FFF784
:1039100007FF82462E238DF80030B8F10F0F34BF19
:1039200043460F23002BCFD003F101085FFA88F83C
:1039300001269FED0F8BA7E751EC180B0022134BCC
:1039400004F0BEF904F008FE014648460A22534638
:10395000FFF7E6FE8246504605B0BDEC028BBDE89F
:10396000F08F00BFAFF30080000000A09999B93F2D
:103970000000000000002440BC940000C09400003F
:10398000FFFFEF41C4940000FFFFEFC10000E03FE4
:1039900008B5FFF71FFD08BD08B5FFF7CFFC08BD50
:1039A00008B5FFF7F7FC08BD08B5FFF7C9FD08BD6E
:1039B00008B5FFF71DFD08BD08B50846FFF7B4FDC3
:1039C00008BD00BF08B508461146FFF72DFD08BD2C
:1039D000704700BF044B00221A714FF47A7199604E
:1039E0001A73024A1A607047881BFF1FD0940000A8
:1039F00008B5164B1B7843BB0122144B1A70FFF716
:103A0000E9FC08B1FFF7E4FF00F07CFB08B102F02D
:103A1000CBFC00F039FF08B102F068FD01F00CFAB0
:103A200008B102F005FE01F01DFD08B102F0A2FE92
:103A300001F0C0FF08B102F03FFF02F0EBFA08B15D
:103A400002F0D0FF0022014B1A7008BD981BFF1F27
:103A500060223A4B1A70E12201331A70384B1B78FE
:103A6000082B10D1212203F1804303F56C331A6037
:103A7000132334490B6001F5FF2101F2FC710A6048
:103A8000314A13601FE00A2B0DD139222F4B1A60E7
:103A900013232C490B6001F5FF2101F2FC710A6030
:103AA000294A13600FE00C2B0CBF35225D22274BF7
:103AB0001A60122323490B6001F5FF2101F2FC710A
:103AC0000A60214A1360224B1B7833B10123214A3B
:103AD000136002F50022136005E000231D4A136005
:103AE00002F5002213601C4B1B78012B06D88023A3
:103AF0001A4A136002F5002213601AE0042B06D85C
:103B00008423164A136002F50022136011E0082B8B
:103B100006D88523114A136002F50022136008E0DD
:103B2000102B94BF862387230C4A136002F50022D2
:103B3000136001220A4B1A70704700BF0040074013
:103B40002011FF1F0CB003400CB00B4008B0034025
:103B50009A1BFF1F20B003402111FF1F24B0034018
:103B6000991BFF1F30B40023B0FBF2F402FB1404D6
:103B70001D46092C94BF30343734E4B2CC54B0FB2A
:103B8000F2F008B10133EFE70D4400226A7093426E
:103B900007DD885CCC5C8C54C8540132013B9A42EE
:103BA000F7DB084630BC70472B4B1A6842F4806242
:103BB0001A600023294A1370294A1370294A137086
:103BC000294A1370294A1370294B1B78152B07D0EB
:103BD0001B2B0AD06BB940F21332264B1A6008E057
:103BE00040F21332244B1A6003E040F21332234BAD
:103BF0001A60234B1B78052B08D01A2B0BD0012BF6
:103C00000DD14FF451721F4B1A6008E04FF45172FE
:103C10001D4B1A6003E04FF451721C4B1A60C0F345
:103C200044321B4B1A70C0F347125A7000F01F0049
:103C3000987204229A700221D9745A7588221A74D3
:103C40003C22DA704022134B1A704FF00042A3F26C
:103C50001F331A60704700BF34800440281CFF1FC8
:103C6000A11BFF1F301CFF1F291CFF1FA01BFF1FD4
:103C7000E41BFF1F40A0044018C004403C900440D7
:103C80002211FF1F44A004401CC00440389004408F
:103C900000A006401FE400E01B4B9B7803F0EC0300
:103CA00000F00302134310F0040F18BF43F0100399
:103CB000154A937000F00F03042B04D11346927938
:103CC00042F040029A71104B5A7902F0EF0210F064
:103CD000100F18BF42F010020B4B5A719B7903F082
:103CE000EF0310F0200F18BF43F01003064A937142
:103CF00010F4807F07D013465278D2B2197841F081
:103D0000200119705A70704700A0064010B5144B7E
:103D10001B6813F4806F21D0124B1B7813F0FF0F38
:103D200006D0104CFFF764FE237813F0FF0FF9D193
:103D30004FF000420C4B1A6000230C4AD37040F243
:103D400003120B490A6004310A600A4A13700A4AD6
:103D500013700A4B1B680BB101221A7010BD00BF13
:103D600034800440A01BFF1F80E100E000A006405B
:103D700040A00440281CFF1FA11BFF1F9C1BFF1F0E
:103D800010B50446094A137813F0FF0FFBD1204603
:103D90000121FEF7C3FC20460021FEF78DFC044BF9
:103DA00053F83420034B1A6010BD00BFA01BFF1F47
:103DB000B89200002C1CFF1F10B40C4609B140F053
:103DC00080001D4B1B78984233D01C4A126812F4B5
:103DD000806F2CD003F07F03052B07D01A2B09D05E
:103DE000012B0AD10022164B1A6006E00022154B67
:103DF0001A6002E00022144B1A60002C0CBF44220F
:103E0000602200F07F03052B08D01A2B0BD0012B6A
:103E10000DD142F440720A4B1A6008E042F440723D
:103E2000084B1A6003E042F44072074B1A60024BE1
:103E300018705DF8044B70472211FF1F3480044056
:103E400044A004401CC0044038900440174B1B7829
:103E5000984229D0164A126812F4806F22D0152B8E
:103E600006D01B2B08D053B90022124B1A6006E073
:103E70000022114B1A6002E00022104B1A60152834
:103E800007D01B280AD068B940F21332094B1A60D8
:103E900008E040F21332084B1A6003E040F213329C
:103EA000064B1A60014B1870704700BFE41BFF1FE0
:103EB0003480044040A0044018C004403C900440BA
:103EC00010B50D4B1B6813F4806F12D03F280CD82F
:103ED0000A4C0B4B53F8303023600121FEF71EFCD7
:103EE000236800221A70012010BD0020034B1860C7
:103EF00010BD002010BD00BF348004409C1BFF1F7C
:103F0000B8920000114B1B6813F4806F1BD012286D
:103F100004D140F202320E4B1A600DE0142804D195
:103F200040F202320B4B1A6006E00B4B5A7B02F058
:103F3000FE025A7300207047074B5A7B42F0010281
:103F40005A73012070470020704700BF348004403E
:103F50000CA0044014C0044000A006402DE9F0412C
:103F600007461F4B1B6813F4806F37D01D4B1B682F
:103F70000BB101221A701C4B1C780134402C28BF55
:103F800000241A4D1A4EDFF86C8017E0FEF728FB6C
:103F900040280FDC337913F0800F0FD02B780133DA
:103FA000402B28BF002318F80320D2B2F271DBB2F5
:103FB0002B7003E0FF2801DDFFF71AFD2B78DBB241
:103FC0009C42E3D0FFB20B4B1F5501220A4B1A70E3
:103FD000E4B2054B1C70BC22054BDA70BDE8F081E1
:103FE000348004402C1CFF1F301CFF1F291CFF1FA6
:103FF00000A00640A41BFF1FA01BFF1F2DE9F84FC8
:104000000746284B1B6813F4806F49D0264B1B686A
:104010000BB101221A7007EB010B5F453DD2DFF8AF
:104020009890224EDFF88C80DFF890A099F800403D
:104030000134402C28BF00243578EDB2A54220D1B0
:10404000BC2388F80330FEF7CBFA402811DC98F83F
:10405000043013F0800F10D033780133402B28BF89
:1040600000231AF80320D2B288F80720DBB233709D
:1040700003E0FF2801DDFFF7BBFC3378DBB29D4294
:10408000E1D017F8013B0AF804300122084B1A70FE
:10409000E4B289F800405F45C8D1BC22054BDA7014
:1040A000BDE8F88F348004402C1CFF1F291CFF1F23
:1040B000A01BFF1F00A00640301CFF1FA41BFF1FFA
:1040C00010B5064B1B7813F0FF0F06D0034CFFF71B
:1040D0008FFC237813F0FF0FF9D110BDA01BFF1F39
:1040E000064B1B78DBB2064A1278D2B293422CBF41
:1040F0003F3202F1FF32D01A704700BF301CFF1F61
:10410000291CFF1F054B1878C0B2054B1B78DBB28A
:10411000984238BF4030C01A704700BF281CFF1FAC
:10412000A11BFF1F10B4184B1A78D2B2174B1B7883
:10413000DBB29A4218D001333F2B18D81449C85C1F
:10414000C0B2DCB211490C7012490968C9B19A4277
:1041500003D300E00023D31A01E04032D31A1A2B14
:104160000FDC00230B700CE04FF0FF3009E0084B30
:104170001878C0B20021054B1970064B1968002948
:10418000E8D15DF8044B7047281CFF1FA11BFF1FDF
:10419000E81BFF1F9C1BFF1F094B1A78D2B2094B6B
:1041A0001B78DBB29A4207D00133402B28BF002393
:1041B000054AD05CC0B270474FF0FF30704700BF77
:1041C000281CFF1FA11BFF1FE81BFF1F0D4B1B68B7
:1041D00013F4806F14D00C4BDA7802F0CB02DA7053
:1041E00040225A74DA7842F03402DA70074B1A78B7
:1041F000D2B2074B1A70074B1B680BB100221A7022
:10420000704700BF3480044000A00640A11BFF1F80
:10421000281CFF1F9C1BFF1F70B43D4B1B7913F024
:10422000300F33D072B63A4B9B7D03F0FF022BB9AF
:10423000374BDA7940225A7462B627E062B6354BC2
:104240001978C9B2344B1C78E4B2314D334EEB7956
:10425000D8B24B1C402B28BF0023A3421CBFF054F4
:104260001946531E13F0FF02F1D1CAB2294B1A703E
:104270002B4B1B6853B1A1422EBFC4EB0101C4F10B
:10428000400409192729C4BF01221A70204BDA788B
:10429000D2B212F0800F27D01B7913F0800F23D0F9
:1042A000204B1C78E4B2204B1B78DBB29C4210D030
:1042B00017491E4D01E0A3420BD00133402B28BF0C
:1042C00000230879E85CC0B2C871087DC0B2072835
:1042D000F1D9DBB214490B700D4B1B7913F0800F31
:1042E00002D07C210A4BD97012F0400F0ED0084B3F
:1042F0001B7913F0400F09D000220D4B1A700D4BA3
:104300001B6803B11A703C22014BDA7070BC704715
:1043100000A00640281CFF1FA11BFF1FE81BFF1F5A
:104320009C1BFF1F301CFF1F291CFF1FA41BFF1F0E
:10433000A01BFF1F2C1CFF1F244B1A6842F40062B5
:104340001A600023224A1370224A1370224A137003
:10435000224A1370224A1370224B1B78092B02D079
:104360003B2B05D008E040F213321F4B1A6003E0EC
:1043700040F213321D4B1A601D4B1B780A2B02D0E2
:104380003A2B05D008E04FF451721A4B1A6003E043
:104390004FF45172184B1A60C0F34432174B1A7025
:1043A000C0F347125A7000F01F00987204219970F0
:1043B0000222DA745975882119743C21D970402180
:1043C0000F4B1970A3F21D331A60704734800440FC
:1043D000A41CFF1F391CFF1FAC1CFF1FA51CFF1FC7
:1043E000381CFF1F2311FF1F0CB0044004D00440F1
:1043F0002411FF1F10B0044000D0044000B006405C
:1044000021E400E01B4B9B7803F0EC0300F0030277
:10441000134310F0040F18BF43F01003154A9370B4
:1044200000F00F03042B04D11346927942F04002AE
:104430009A71104B5A7902F0EF0210F0100F18BF6A
:1044400042F010020B4B5A719B7903F0EF0310F00E
:10445000200F18BF43F01003064A937110F4807FB9
:1044600007D013465278D2B2197841F02001197062
:104470005A70704700B0064010B5214B1B6813F40A
:10448000006F3BD01F4B1B7813F0FF0F06D01D4C65
:10449000FFF7AEFA237813F0FF0FF9D102221A4B7F
:1044A0001A600022194BDA70194B1B78092B02D0C5
:1044B0003B2B05D007E040F20312164B1A6002E0D6
:1044C0000022154B1A60154B1B7803F07F030A2B53
:1044D00002D03A2B05D007E040F20312104B1A60CD
:1044E00002E000220F4B1A6000230F4A13700F4A9C
:1044F00013700F4B1B680BB101221A7010BD00BF67
:1045000034800440381CFF1F84E100E000B0064006
:104510002311FF1F0CB0044004D004402411FF1FDE
:1045200010B0044000D00440A41CFF1F391CFF1F22
:10453000341CFF1F10B50446094A137813F0FF0F0F
:10454000FBD120460121FEF7E9F820460021FEF7C5
:10455000B3F8044B53F83420034B1A6010BD00BF6E
:10456000381CFF1FB8920000A81CFF1F10B40C4697
:1045700009B140F08000184B1B78984228D0174AA8
:10458000126812F4006F21D003F07F030A2B02D0CF
:104590003A2B04D006E00022114B1A6002E0002200
:1045A000104B1A60002C0CBF4422602200F07F03E5
:1045B0000A2B02D03A2B05D008E042F44072084B97
:1045C0001A6003E042F44072064B1A60024B187006
:1045D0005DF8044B704700BF2411FF1F3480044076
:1045E00010B0044000D00440124B1B78984220D0F9
:1045F000114A126812F4006F19D0092B02D03B2B1C
:1046000004D006E000220D4B1A6002E000220C4BA1
:104610001A60092802D03B2805D008E040F2133286
:10462000064B1A6003E040F21332054B1A60014B4F
:10463000187070472311FF1F348004400CB00440F1
:1046400004D0044010B50D4B1B6813F4006F12D05A
:104650003F280CD80A4C0B4B53F830302360012113
:10466000FEF75CF8236800221A70012010BD0020BC
:10467000034B186010BD002010BD00BF3480044003
:10468000341CFF1FB8920000114B1B6813F4006F1D
:104690001BD0172804D140F202320E4B1A600DE0F5
:1046A0003C2804D140F202320B4B1A6006E00B4B5F
:1046B0005A7B02F0FE025A7300207047074B5A7B68
:1046C00042F001025A73012070470020704700BF7A
:1046D0003480044008B0044008D0044000B00640D4
:1046E0002DE9F04107461F4B1B6813F4006F37D0CC
:1046F0001D4B1B680BB101221A701C4B1C78013436
:10470000282C28BF00241A4D1A4EDFF86C8017E0C1
:10471000FDF766FF40280FDC337913F0800F0FD0D0
:104720002B780133282B28BF002318F80320D2B29E
:10473000F271DBB22B7003E0FF2801DDFFF758F9BF
:104740002B78DBB29C42E3D0FFB20B4B1F5501220A
:104750000A4B1A70E4B2054B1C70BC22054BDA7090
:10476000BDE8F08134800440A81CFF1FAC1CFF1F73
:10477000A51CFF1F00B006403C1CFF1F381CFF1F7C
:104780002DE9F84F0746284B1B6813F4006F49D0FA
:10479000264B1B680BB101221A7007EB010B5F451A
:1047A0003DD2DFF89890224EDFF88C80DFF890A0A1
:1047B00099F800400134282C28BF00243578EDB248
:1047C000A54220D1BC2388F80330FDF709FF40281B
:1047D00011DC98F8043013F0800F10D033780133D7
:1047E000282B28BF00231AF80320D2B288F807200C
:1047F000DBB2337003E0FF2801DDFFF7F9F833780F
:10480000DBB29D42E1D017F8013B0AF804300122E7
:10481000084B1A70E4B289F800405F45C8D1BC2249
:10482000054BDA70BDE8F88F34800440A81CFF1FE8
:10483000A51CFF1F381CFF1F00B00640AC1CFF1F4B
:104840003C1CFF1F10B5064B1B7813F0FF0F06D062
:10485000034CFFF7CDF8237813F0FF0FF9D110BD0B
:10486000381CFF1F064B1B78DBB2064A1278D2B207
:1048700093422CBF273202F1FF32D01A704700BF9B
:10488000AC1CFF1FA51CFF1F054B1878C0B2054BC1
:104890001B78DBB2984238BF4030C01A704700BF67
:1048A000A41CFF1F391CFF1F10B4184B1A78D2B27A
:1048B000174B1B78DBB29A4218D001333F2B18D824
:1048C0001449C85CC0B2DCB211490C7012490968C5
:1048D000C9B19A4203D300E00023D31A01E0403269
:1048E000D31A1A2B0FDC00230B700CE04FF0FF30B3
:1048F00009E0084B1878C0B20021054B1970064B2F
:1049000019680029E8D15DF8044B7047A41CFF1F0B
:10491000391CFF1F641CFF1F341CFF1F094B1A7832
:10492000D2B2094B1B78DBB29A4207D00133402B3D
:1049300028BF0023054AD05CC0B270474FF0FF305B
:10494000704700BFA41CFF1F391CFF1F641CFF1F02
:104950000D4B1B6813F4006F14D00C4BDA7802F087
:10496000CB02DA7040225A74DA7842F03402DA70FC
:10497000074B1A78D2B2074B1A70074B1B680BB162
:1049800000221A70704700BF3480044000B0064017
:10499000391CFF1FA41CFF1F341CFF1F70B43D4BAC
:1049A0001B7913F0300F33D072B63A4B9B7D03F076
:1049B000FF022BB9374BDA7940225A7462B627E0EE
:1049C00062B6354B1978C9B2344B1C78E4B2314D1C
:1049D000334EEB79D8B24B1C402B28BF0023A342A7
:1049E0001CBFF0541946531E13F0FF02F1D1CAB296
:1049F000294B1A702B4B1B6853B1A1422EBFC4EB3D
:104A00000101C4F1400409192729C4BF01221A7009
:104A1000204BDA78D2B212F0800F27D01B7913F036
:104A2000800F23D0204B1C78E4B2204B1B78DBB2E4
:104A30009C4210D017491E4D01E0A3420BD0013318
:104A4000282B28BF00230879E85CC0B2C871087D14
:104A5000C0B20728F1D9DBB214490B700D4B1B799A
:104A600013F0800F02D07C210A4BD97012F0400F56
:104A70000ED0084B1B7913F0400F09D000220D4BCC
:104A80001A700D4B1B6803B11A703C22014BDA708F
:104A900070BC704700B00640A41CFF1F391CFF1FEC
:104AA000641CFF1F341CFF1FAC1CFF1FA51CFF1F35
:104AB0003C1CFF1F381CFF1FA81CFF1F164B1A6849
:104AC00042F480521A600023144A1370144A13707F
:104AD000144A1370144A1370144A137040F21331BD
:104AE000134A11604FF4517104321160C0F3443124
:104AF000104A1170C0F34711517000F01F009072FE
:104B0000937013742C23D37040220B4B1A7008221D
:104B1000A3F21F331A60704734800440201DFF1F2A
:104B2000B51CFF1F281DFF1F211DFF1FB41CFF1FE9
:104B300008C0044000C0064023E400E01B4B9B7803
:104B400003F0EC0300F00302134310F0040F18BF4E
:104B500043F01003154A937000F00F03042B04D1A7
:104B60001346927942F040029A71104B5A7902F042
:104B7000EF0210F0100F18BF42F010020B4B5A71E9
:104B80009B7903F0EF0310F0200F18BF43F01003E0
:104B9000064A937110F4807F07D013465278D2B240
:104BA000197841F0200119705A70704700C0064012
:104BB00010B5134B1B6813F4805F20D0114B1B788A
:104BC00013F0FF0F06D00F4CFEF712FF237813F0FF
:104BD000FF0FF9D108220C4B1A6000230B4AD37047
:104BE00040F203120A490A6004310A60094A13704C
:104BF000094A1370094B1B680BB101221A7010BDD2
:104C000034800440B41CFF1F84E100E000C0064073
:104C100008C00440201DFF1FB51CFF1FB01CFF1F54
:104C200010B50446094A137813F0FF0FFBD1204654
:104C30000121FDF773FD20460021FDF73DFD044BEA
:104C400053F83420034B1A6010BD00BFB41CFF1F83
:104C5000B8920000241DFF1F10B40C4609B140F0AB
:104C60008000104B1B78984219D00F4A126812F43A
:104C7000805F12D003F07F03082B02D100220B4B80
:104C80001A60002C0CBF4422602200F07F03082B26
:104C900003D142F44072054B1A60024B18705DF864
:104CA000044B70472511FF1F348004400CC00440A2
:104CB000704700BF10B50D4B1B6813F4805F12D016
:104CC0003F280CD80A4C0B4B53F83030236001219D
:104CD000FDF724FD236800221A70012010BD00207A
:104CE000034B186010BD002010BD00BF348004408D
:104CF000B01CFF1FB89200000D4B1B6813F4805FBF
:104D000013D00E280AD140F202320A4B1A600A4B25
:104D10005A7B42F001025A7301207047064B5A7BBE
:104D200002F0FE025A73002070470020704700BF57
:104D30003480044004C0044000C006402DE9F04126
:104D400007461F4B1B6813F4805F37D01D4B1B6851
:104D50000BB101221A701C4B1C780134282C28BF7F
:104D600000241A4D1A4EDFF86C8017E0FDF738FC6E
:104D700040280FDC337913F0800F0FD02B780133EC
:104D8000282B28BF002318F80320D2B2F271DBB21F
:104D90002B7003E0FF2801DDFEF72AFE2B78DBB243
:104DA0009C42E3D0FFB20B4B1F5501220A4B1A70F5
:104DB000E4B2054B1C70AC22054BDA70BDE8F08103
:104DC00034800440241DFF1F281DFF1F211DFF1FCD
:104DD00000C00640B81CFF1FB41CFF1F38B50546B5
:104DE0000C4629B115F8010BFFF7A8FF013CF9D1DA
:104DF00038BD00BF10B5064B1B7813F0FF0F06D06F
:104E0000034CFEF7F5FD237813F0FF0FF9D110BD29
:104E1000B41CFF1F064B1B78DBB2064A1278D2B2D5
:104E200093422CBF273202F1FF32D01A704700BFE5
:104E3000281DFF1F211DFF1F054B1878C0B2054B11
:104E40001B78DBB2984238BF4030C01A704700BFB1
:104E5000201DFF1FB51CFF1F10B4184B1A78D2B2CB
:104E6000174B1B78DBB29A4218D001333F2B18D86E
:104E70001449C85CC0B2DCB211490C70124909680F
:104E8000C9B19A4203D300E00023D31A01E04032B3
:104E9000D31A1A2B0FDC00230B700CE04FF0FF30FD
:104EA00009E0084B1878C0B20021054B1970064B79
:104EB00019680029E8D15DF8044B7047201DFF1FD9
:104EC000B51CFF1FE01CFF1FB01CFF1F094B1A7809
:104ED000D2B2094B1B78DBB29A4207D00133402B88
:104EE00028BF0023054AD05CC0B270474FF0FF30A6
:104EF000704700BF201DFF1FB51CFF1FE01CFF1FD8
:104F0000054B1A78D2B2054B1A70054B1B680BB1D2
:104F100000221A70704700BFB51CFF1F201DFF1F25
:104F2000B01CFF1F2F4B1B7913F0200F23D02D4BEC
:104F3000DB79D9B22C4B1B780133402B28BF0023DF
:104F40002A4A1278D2B29A4204D0294AD154D9B20C
:104F5000254A1170274A116869B1274A1278D2B2DE
:104F600093422EBFC2EB0303C2F140029B18272BD2
:104F7000C4BF01230B701B4BDB78DBB213F0800F37
:104F80001CD0184A127912F0800F17D01B4A1178E2
:104F9000C9B2194A1278D2B2914203D16C21114A96
:104FA000D1700BE00132282A28BF00221449885C06
:104FB000C0B20C49C871D2B20F490A7013F0400F49
:104FC0000ED0084B1B7913F0400F09D000220D4B77
:104FD0001A700D4B1B6803B11A702C22014BDA704A
:104FE000704700BF00C00640201DFF1FB51CFF1FFB
:104FF000E01CFF1FB01CFF1F211DFF1F281DFF1FEE
:10500000B81CFF1FB41CFF1F241DFF1F234B1A6871
:1050100042F400521A600023214A1370214A13708F
:10502000214A1370214A1370214A1370214B1B78B7
:105030001F2B02D03F2B05D008E040F213321E4B4D
:105040001A6003E040F213321C4B1A601C4B1B78B1
:10505000202B02D03E2B05D008E04FF45172194BA3
:105060001A6003E04FF45172174B1A60C0F34432D8
:10507000164B1A70C0F347125A7000F01F00987256
:1050800000229A701A742C22DA704022104B1A7087
:105090002022A3F221331A60704700BF34800440FD
:1050A0009C1DFF1F311DFF1FA41DFF1F9D1DFF1F06
:1050B000301DFF1F2611FF1F28A0044014D00440FC
:1050C0002711FF1F2CA0044010D0044000D0064040
:1050D00025E400E01B4B9B7803F0EC0300F0030297
:1050E000134310F0040F18BF43F01003154A9370D8
:1050F00000F00F03042B04D11346927942F04002D2
:105100009A71104B5A7902F0EF0210F0100F18BF8D
:1051100042F010020B4B5A719B7903F0EF0310F031
:10512000200F18BF43F01003064A937110F4807FDC
:1051300007D013465278D2B2197841F02001197085
:105140005A70704700D0064010B5244B1B6813F40A
:10515000005F41D0224B1B7813F0FF0F06D0204C8C
:10516000FEF746FC237813F0FF0FF9D120221D4BE8
:105170001A6000221C4BDA7040F203131B4A1360C2
:10518000043213601A4B1B781F2B02D03F2B05D023
:1051900007E040F20312154B1A6002E00022154BA3
:1051A0001A60154B1B7803F07F03202B02D03E2B97
:1051B00005D007E040F20312104B1A6002E0002213
:1051C0000F4B1A6000230F4A13700F4A13700F4BD6
:1051D0001B680BB101221A7010BD00BF348004405F
:1051E000301DFF1F84E100E000D0064028A00440ED
:1051F0002611FF1F14D004402711FF1F2CA00440CC
:1052000010D004409C1DFF1F311DFF1F2C1DFF1FD0
:1052100010B50446094A137813F0FF0FFBD120465E
:105220000121FDF77BFA20460021FDF745FA044BEA
:1052300053F83420034B1A6010BD00BF301DFF1F10
:10524000B8920000A01DFF1F10B40C4609B140F039
:105250008000184B1B78984228D0174A126812F425
:10526000005F21D003F07F03202B02D03E2B04D01F
:1052700006E00022114B1A6002E00022104B1A6077
:10528000002C0CBF4422602200F07F03202B02D0B0
:105290003E2B05D008E042F44072084B1A6003E050
:1052A00042F44072064B1A60024B18705DF8044BD2
:1052B000704700BF2711FF1F348004402CA004401A
:1052C00010D00440124B1B78984220D0114A12682B
:1052D00012F4005F19D01F2B02D03F2B04D006E040
:1052E00000220D4B1A6002E000220C4B1A601F28AE
:1052F00002D03F2805D008E040F21332064B1A6076
:1053000003E040F21332054B1A60014B18707047EE
:105310002611FF1F3480044028A0044014D004400C
:1053200010B50D4B1B6813F4005F12D03F280CD84A
:105330000A4C0B4B53F8303023600121FDF7EEF996
:10534000236800221A70012010BD0020034B186052
:1053500010BD002010BD00BF348004402C1DFF1F75
:10536000B8920000002070472DE9F04107461F4B1E
:105370001B6813F4005F37D01D4B1B680BB1012273
:105380001A701C4B1C780134282C28BF00241A4D9D
:105390001A4EDFF86C8017E0FDF722F940280FDC89
:1053A000337913F0800F0FD02B780133282B28BFCF
:1053B000002318F80320D2B2F271DBB22B7003E0A5
:1053C000FF2801DDFEF714FB2B78DBB29C42E3D013
:1053D000FFB20B4B1F5501220A4B1A70E4B2054B6A
:1053E0001C70AC22054BDA70BDE8F08134800440BB
:1053F000A01DFF1FA41DFF1F9D1DFF1F00D0064005
:10540000341DFF1F301DFF1F38B505460C4629B15E
:1054100015F8010BFFF7A8FF013CF9D138BD00BF1B
:1054200010B5064B1B7813F0FF0F06D0034CFEF7A8
:10543000DFFA237813F0FF0FF9D110BD301DFF1FE5
:10544000064B1B78DBB2064A1278D2B293422CBFCD
:10545000273202F1FF32D01A704700BFA41DFF1F90
:105460009D1DFF1F054B1878C0B2054B1B78DBB2A2
:10547000984238BF4030C01A704700BF9C1DFF1FC4
:10548000311DFF1F10B4184B1A78D2B2174B1B787E
:10549000DBB29A4218D001333F2B18D81449C85CAC
:1054A000C0B2DCB211490C7012490968C9B19A4204
:1054B00003D300E00023D31A01E04032D31A1A2BA1
:1054C0000FDC00230B700CE04FF0FF3009E0084BBD
:1054D0001878C0B20021054B1970064B19680029D5
:1054E000E8D15DF8044B70479C1DFF1F311DFF1F65
:1054F0005C1DFF1F2C1DFF1F094B1A78D2B2094BF0
:105500001B78DBB29A4207D00133402B28BF00231F
:10551000054AD05CC0B270474FF0FF30704700BF03
:105520009C1DFF1F311DFF1F5C1DFF1F054B1A78BF
:10553000D2B2054B1A70054B1B680BB100221A70D2
:10554000704700BF311DFF1F9C1DFF1F2C1DFF1F3B
:105550002F4B1B7913F0200F23D02D4BDB79D9B2C1
:105560002C4B1B780133402B28BF00232A4A12788A
:10557000D2B29A4204D0294AD154D9B2254A1170E4
:10558000274A116869B1274A1278D2B293422EBFD6
:10559000C2EB0303C2F140029B18272BC4BF0123B7
:1055A0000B701B4BDB78DBB213F0800F1CD0184A5A
:1055B000127912F0800F17D01B4A1178C9B2194A1C
:1055C0001278D2B2914203D16C21114AD1700BE012
:1055D0000132282A28BF00221449885CC0B20C4935
:1055E000C871D2B20F490A7013F0400F0ED0084BA9
:1055F0001B7913F0400F09D000220D4B1A700D4B90
:105600001B6803B11A702C22014BDA70704700BF7F
:1056100000D006409C1DFF1F311DFF1F5C1DFF1F9A
:105620002C1DFF1F9D1DFF1FA41DFF1F341DFF1FED
:10563000301DFF1FA01DFF1F164B1A6842F4806229
:105640001A600023144A1370144A1370144A13701A
:10565000144A1370144A137040F21331134A116044
:105660004FF45171043A1160C0F34431104A117083
:10567000C0F34711517000F01F00907293701374C3
:105680002C23D37040220B4B1A700422A3F23A331E
:105690001A60704728800440181EFF1FAD1DFF1FB1
:1056A000201EFF1F191EFF1FAC1DFF1F64D00440EA
:1056B00000A00E4042E400E01B4B9B7803F0EC039B
:1056C00000F00302134310F0040F18BF43F010035F
:1056D000154A937000F00F03042B04D113469279FE
:1056E00042F040029A71104B5A7902F0EF0210F02A
:1056F000100F18BF42F010020B4B5A719B7903F048
:10570000EF0310F0200F18BF43F01003064A937107
:1057100010F4807F07D013465278D2B2197841F046
:10572000200119705A70704700A00E4010B5134B3D
:105730001B6813F4806F20D0114B1B7813F0FF0F00
:1057400006D00F4CFEF754F9237813F0FF0FF9D170
:1057500004220C4B1A6000230B4AD37040F2031250
:105760000A490A6004390A60094A1370094A137029
:10577000094B1B680BB101221A7010BD2880044030
:10578000AC1DFF1F88E100E000A00E4064D0044083
:10579000181EFF1FAD1DFF1FA81DFF1F10B50446DB
:1057A000094A137813F0FF0FFBD120460121FCF7C3
:1057B000B5FF20460021FCF77FFF044B53F834204F
:1057C000034B1A6010BD00BFAC1DFF1FB892000054
:1057D0001C1EFF1F10B40C4609B140F08000104B96
:1057E0001B78984219D00F4A126812F4806F12D0B9
:1057F00003F07F03212B02D100220B4B1A60002CF7
:105800000CBF4422602200F07F03212B03D142F41D
:105810004072054B1A60024B18705DF8044B7047DC
:105820002811FF1F2880044060D00440704700BF4B
:1058300010B50D4B1B6813F4806F12D03F280CD8A5
:105840000A4C0B4B53F8303023600121FCF766FF04
:10585000236800221A70012010BD0020034B18603D
:1058600010BD002010BD00BF28800440A81DFF1FF0
:10587000B89200000D4B1B6813F4806F13D01828EA
:105880000AD140F202320A4B1A600A4B5A7B42F0AC
:1058900001025A7301207047064B5A7B02F0FE0248
:1058A0005A73002070470020704700BF28800440D2
:1058B00068D0044000A00E402DE9F04107461F4B80
:1058C0001B6813F4806F37D01D4B1B680BB101228E
:1058D0001A701C4B1C780134282C28BF00241A4D48
:1058E0001A4EDFF86C8017E0FCF77AFE40280FDCD8
:1058F000337913F0800F0FD02B780133282B28BF7A
:10590000002318F80320D2B2F271DBB22B7003E04F
:10591000FF2801DDFEF76CF82B78DBB29C42E3D068
:10592000FFB20B4B1F5501220A4B1A70E4B2054B14
:105930001C70AC22054BDA70BDE8F0812880044071
:105940001C1EFF1F201EFF1F191EFF1F00A00E4060
:10595000B01DFF1FAC1DFF1F38B505460C4629B111
:1059600015F8010BFFF7A8FF013CF9D138BD00BFC6
:1059700010B5064B1B7813F0FF0F06D0034CFEF753
:1059800037F8237813F0FF0FF9D110BDAC1DFF1FBE
:10599000064B1B78DBB2064A1278D2B293422CBF78
:1059A000273202F1FF32D01A704700BF201EFF1FBE
:1059B000191EFF1F054B1878C0B2054B1B78DBB2D0
:1059C000984238BF4030C01A704700BF181EFF1FF2
:1059D000AD1DFF1F10B4184B1A78D2B2174B1B78AD
:1059E000DBB29A4218D001333F2B18D81449C85C57
:1059F000C0B2DCB211490C7012490968C9B19A42AF
:105A000003D300E00023D31A01E04032D31A1A2B4B
:105A10000FDC00230B700CE04FF0FF3009E0084B67
:105A20001878C0B20021054B1970064B196800297F
:105A3000E8D15DF8044B7047181EFF1FAD1DFF1F16
:105A4000D81DFF1FA81DFF1F094B1A78D2B2094BA2
:105A50001B78DBB29A4207D00133402B28BF0023CA
:105A6000054AD05CC0B270474FF0FF30704700BFAE
:105A7000181EFF1FAD1DFF1FD81DFF1F054B1A78F5
:105A8000D2B2054B1A70054B1B680BB100221A707D
:105A9000704700BFAD1DFF1F181EFF1FA81DFF1F71
:105AA0002F4B1B7913F0200F23D02D4BDB79D9B26C
:105AB0002C4B1B780133402B28BF00232A4A127835
:105AC000D2B29A4204D0294AD154D9B2254A11708F
:105AD000274A116869B1274A1278D2B293422EBF81
